{
  "contractName": "Metaboom",
  "abi": [
    {
      "inputs": [],
      "stateMutability": "nonpayable",
      "type": "constructor"
    },
    {
      "anonymous": false,
      "inputs": [
        {
          "indexed": true,
          "internalType": "address",
          "name": "owner",
          "type": "address"
        },
        {
          "indexed": true,
          "internalType": "address",
          "name": "approved",
          "type": "address"
        },
        {
          "indexed": true,
          "internalType": "uint256",
          "name": "tokenId",
          "type": "uint256"
        }
      ],
      "name": "Approval",
      "type": "event"
    },
    {
      "anonymous": false,
      "inputs": [
        {
          "indexed": true,
          "internalType": "address",
          "name": "owner",
          "type": "address"
        },
        {
          "indexed": true,
          "internalType": "address",
          "name": "operator",
          "type": "address"
        },
        {
          "indexed": false,
          "internalType": "bool",
          "name": "approved",
          "type": "bool"
        }
      ],
      "name": "ApprovalForAll",
      "type": "event"
    },
    {
      "anonymous": false,
      "inputs": [
        {
          "indexed": true,
          "internalType": "address",
          "name": "_from",
          "type": "address"
        },
        {
          "indexed": true,
          "internalType": "uint256",
          "name": "_tokenId",
          "type": "uint256"
        },
        {
          "indexed": true,
          "internalType": "address",
          "name": "_childContract",
          "type": "address"
        },
        {
          "indexed": false,
          "internalType": "uint256",
          "name": "_childTokenId",
          "type": "uint256"
        }
      ],
      "name": "ReceivedChild",
      "type": "event"
    },
    {
      "anonymous": false,
      "inputs": [
        {
          "indexed": true,
          "internalType": "address",
          "name": "_from",
          "type": "address"
        },
        {
          "indexed": true,
          "internalType": "uint256",
          "name": "_tokenId",
          "type": "uint256"
        },
        {
          "indexed": true,
          "internalType": "address",
          "name": "_erc20Contract",
          "type": "address"
        },
        {
          "indexed": false,
          "internalType": "uint256",
          "name": "_value",
          "type": "uint256"
        }
      ],
      "name": "ReceivedERC20",
      "type": "event"
    },
    {
      "anonymous": false,
      "inputs": [
        {
          "indexed": true,
          "internalType": "address",
          "name": "from",
          "type": "address"
        },
        {
          "indexed": true,
          "internalType": "address",
          "name": "to",
          "type": "address"
        },
        {
          "indexed": true,
          "internalType": "uint256",
          "name": "tokenId",
          "type": "uint256"
        }
      ],
      "name": "Transfer",
      "type": "event"
    },
    {
      "anonymous": false,
      "inputs": [
        {
          "indexed": true,
          "internalType": "uint256",
          "name": "tokenId",
          "type": "uint256"
        },
        {
          "indexed": true,
          "internalType": "address",
          "name": "_to",
          "type": "address"
        },
        {
          "indexed": true,
          "internalType": "address",
          "name": "_childContract",
          "type": "address"
        },
        {
          "indexed": false,
          "internalType": "uint256",
          "name": "_childTokenId",
          "type": "uint256"
        }
      ],
      "name": "TransferChild",
      "type": "event"
    },
    {
      "anonymous": false,
      "inputs": [
        {
          "indexed": true,
          "internalType": "uint256",
          "name": "_tokenId",
          "type": "uint256"
        },
        {
          "indexed": true,
          "internalType": "address",
          "name": "_to",
          "type": "address"
        },
        {
          "indexed": true,
          "internalType": "address",
          "name": "_erc20Contract",
          "type": "address"
        },
        {
          "indexed": false,
          "internalType": "uint256",
          "name": "_value",
          "type": "uint256"
        }
      ],
      "name": "TransferERC20",
      "type": "event"
    },
    {
      "inputs": [
        {
          "internalType": "address",
          "name": "_to",
          "type": "address"
        }
      ],
      "name": "_safeMint",
      "outputs": [
        {
          "internalType": "uint256",
          "name": "",
          "type": "uint256"
        }
      ],
      "stateMutability": "nonpayable",
      "type": "function"
    },
    {
      "inputs": [
        {
          "internalType": "address",
          "name": "_approved",
          "type": "address"
        },
        {
          "internalType": "uint256",
          "name": "_tokenId",
          "type": "uint256"
        }
      ],
      "name": "approve",
      "outputs": [],
      "stateMutability": "nonpayable",
      "type": "function"
    },
    {
      "inputs": [
        {
          "internalType": "address",
          "name": "_tokenOwner",
          "type": "address"
        }
      ],
      "name": "balanceOf",
      "outputs": [
        {
          "internalType": "uint256",
          "name": "",
          "type": "uint256"
        }
      ],
      "stateMutability": "view",
      "type": "function",
      "constant": true
    },
    {
      "inputs": [
        {
          "internalType": "uint256",
          "name": "_tokenId",
          "type": "uint256"
        },
        {
          "internalType": "address",
          "name": "_erc20Contract",
          "type": "address"
        }
      ],
      "name": "balanceOfERC20",
      "outputs": [
        {
          "internalType": "uint256",
          "name": "",
          "type": "uint256"
        }
      ],
      "stateMutability": "view",
      "type": "function",
      "constant": true
    },
    {
      "inputs": [
        {
          "internalType": "address",
          "name": "from",
          "type": "address"
        },
        {
          "internalType": "address",
          "name": "to",
          "type": "address"
        },
        {
          "internalType": "uint256",
          "name": "tokenId",
          "type": "uint256"
        },
        {
          "internalType": "uint256",
          "name": "expectedStateHash",
          "type": "uint256"
        }
      ],
      "name": "checkedTransferFrom",
      "outputs": [],
      "stateMutability": "nonpayable",
      "type": "function"
    },
    {
      "inputs": [
        {
          "internalType": "uint256",
          "name": "_tokenId",
          "type": "uint256"
        },
        {
          "internalType": "uint256",
          "name": "_index",
          "type": "uint256"
        }
      ],
      "name": "childContractByIndex",
      "outputs": [
        {
          "internalType": "address",
          "name": "childContract",
          "type": "address"
        }
      ],
      "stateMutability": "view",
      "type": "function",
      "constant": true
    },
    {
      "inputs": [
        {
          "internalType": "address",
          "name": "_childContract",
          "type": "address"
        },
        {
          "internalType": "uint256",
          "name": "_childTokenId",
          "type": "uint256"
        }
      ],
      "name": "childExists",
      "outputs": [
        {
          "internalType": "bool",
          "name": "",
          "type": "bool"
        }
      ],
      "stateMutability": "view",
      "type": "function",
      "constant": true
    },
    {
      "inputs": [
        {
          "internalType": "uint256",
          "name": "_tokenId",
          "type": "uint256"
        },
        {
          "internalType": "address",
          "name": "_childContract",
          "type": "address"
        },
        {
          "internalType": "uint256",
          "name": "_index",
          "type": "uint256"
        }
      ],
      "name": "childTokenByIndex",
      "outputs": [
        {
          "internalType": "uint256",
          "name": "childTokenId",
          "type": "uint256"
        }
      ],
      "stateMutability": "view",
      "type": "function",
      "constant": true
    },
    {
      "inputs": [
        {
          "internalType": "uint256",
          "name": "_tokenId",
          "type": "uint256"
        },
        {
          "internalType": "uint256",
          "name": "_index",
          "type": "uint256"
        }
      ],
      "name": "erc20ContractByIndex",
      "outputs": [
        {
          "internalType": "address",
          "name": "",
          "type": "address"
        }
      ],
      "stateMutability": "view",
      "type": "function",
      "constant": true
    },
    {
      "inputs": [
        {
          "internalType": "uint256",
          "name": "_tokenId",
          "type": "uint256"
        }
      ],
      "name": "getApproved",
      "outputs": [
        {
          "internalType": "address",
          "name": "",
          "type": "address"
        }
      ],
      "stateMutability": "view",
      "type": "function",
      "constant": true
    },
    {
      "inputs": [
        {
          "internalType": "address",
          "name": "_from",
          "type": "address"
        },
        {
          "internalType": "uint256",
          "name": "_tokenId",
          "type": "uint256"
        },
        {
          "internalType": "address",
          "name": "_childContract",
          "type": "address"
        },
        {
          "internalType": "uint256",
          "name": "_childTokenId",
          "type": "uint256"
        }
      ],
      "name": "getChild",
      "outputs": [],
      "stateMutability": "nonpayable",
      "type": "function"
    },
    {
      "inputs": [
        {
          "internalType": "address",
          "name": "_from",
          "type": "address"
        },
        {
          "internalType": "uint256",
          "name": "_tokenId",
          "type": "uint256"
        },
        {
          "internalType": "address",
          "name": "_erc20Contract",
          "type": "address"
        },
        {
          "internalType": "uint256",
          "name": "_value",
          "type": "uint256"
        }
      ],
      "name": "getERC20",
      "outputs": [],
      "stateMutability": "nonpayable",
      "type": "function"
    },
    {
      "inputs": [
        {
          "internalType": "address",
          "name": "_owner",
          "type": "address"
        },
        {
          "internalType": "address",
          "name": "_operator",
          "type": "address"
        }
      ],
      "name": "isApprovedForAll",
      "outputs": [
        {
          "internalType": "bool",
          "name": "",
          "type": "bool"
        }
      ],
      "stateMutability": "view",
      "type": "function",
      "constant": true
    },
    {
      "inputs": [],
      "name": "name",
      "outputs": [
        {
          "internalType": "string",
          "name": "",
          "type": "string"
        }
      ],
      "stateMutability": "view",
      "type": "function",
      "constant": true
    },
    {
      "inputs": [
        {
          "internalType": "address",
          "name": "",
          "type": "address"
        },
        {
          "internalType": "address",
          "name": "_from",
          "type": "address"
        },
        {
          "internalType": "uint256",
          "name": "_childTokenId",
          "type": "uint256"
        },
        {
          "internalType": "bytes",
          "name": "_data",
          "type": "bytes"
        }
      ],
      "name": "onERC721Received",
      "outputs": [
        {
          "internalType": "bytes4",
          "name": "",
          "type": "bytes4"
        }
      ],
      "stateMutability": "nonpayable",
      "type": "function"
    },
    {
      "inputs": [
        {
          "internalType": "address",
          "name": "_from",
          "type": "address"
        },
        {
          "internalType": "uint256",
          "name": "_childTokenId",
          "type": "uint256"
        },
        {
          "internalType": "bytes",
          "name": "_data",
          "type": "bytes"
        }
      ],
      "name": "onERC721Received",
      "outputs": [
        {
          "internalType": "bytes4",
          "name": "",
          "type": "bytes4"
        }
      ],
      "stateMutability": "nonpayable",
      "type": "function"
    },
    {
      "inputs": [
        {
          "internalType": "uint256",
          "name": "_tokenId",
          "type": "uint256"
        }
      ],
      "name": "ownerOf",
      "outputs": [
        {
          "internalType": "address",
          "name": "tokenOwner",
          "type": "address"
        }
      ],
      "stateMutability": "view",
      "type": "function",
      "constant": true
    },
    {
      "inputs": [
        {
          "internalType": "address",
          "name": "_childContract",
          "type": "address"
        },
        {
          "internalType": "uint256",
          "name": "_childTokenId",
          "type": "uint256"
        }
      ],
      "name": "ownerOfChild",
      "outputs": [
        {
          "internalType": "bytes32",
          "name": "parentTokenOwner",
          "type": "bytes32"
        },
        {
          "internalType": "uint256",
          "name": "parentTokenId",
          "type": "uint256"
        }
      ],
      "stateMutability": "view",
      "type": "function",
      "constant": true
    },
    {
      "inputs": [
        {
          "internalType": "uint256",
          "name": "_tokenId",
          "type": "uint256"
        }
      ],
      "name": "rootOwnerOf",
      "outputs": [
        {
          "internalType": "bytes32",
          "name": "rootOwner",
          "type": "bytes32"
        }
      ],
      "stateMutability": "view",
      "type": "function",
      "constant": true
    },
    {
      "inputs": [
        {
          "internalType": "address",
          "name": "_childContract",
          "type": "address"
        },
        {
          "internalType": "uint256",
          "name": "_childTokenId",
          "type": "uint256"
        }
      ],
      "name": "rootOwnerOfChild",
      "outputs": [
        {
          "internalType": "bytes32",
          "name": "rootOwner",
          "type": "bytes32"
        }
      ],
      "stateMutability": "view",
      "type": "function",
      "constant": true
    },
    {
      "inputs": [
        {
          "internalType": "address",
          "name": "from",
          "type": "address"
        },
        {
          "internalType": "address",
          "name": "to",
          "type": "address"
        },
        {
          "internalType": "uint256",
          "name": "tokenId",
          "type": "uint256"
        },
        {
          "internalType": "uint256",
          "name": "expectedStateHash",
          "type": "uint256"
        },
        {
          "internalType": "bytes",
          "name": "data",
          "type": "bytes"
        }
      ],
      "name": "safeCheckedTransferFrom",
      "outputs": [],
      "stateMutability": "nonpayable",
      "type": "function"
    },
    {
      "inputs": [
        {
          "internalType": "address",
          "name": "from",
          "type": "address"
        },
        {
          "internalType": "address",
          "name": "to",
          "type": "address"
        },
        {
          "internalType": "uint256",
          "name": "tokenId",
          "type": "uint256"
        },
        {
          "internalType": "uint256",
          "name": "expectedStateHash",
          "type": "uint256"
        }
      ],
      "name": "safeCheckedTransferFrom",
      "outputs": [],
      "stateMutability": "nonpayable",
      "type": "function"
    },
    {
      "inputs": [
        {
          "internalType": "uint256",
          "name": "_fromTokenId",
          "type": "uint256"
        },
        {
          "internalType": "address",
          "name": "_to",
          "type": "address"
        },
        {
          "internalType": "address",
          "name": "_childContract",
          "type": "address"
        },
        {
          "internalType": "uint256",
          "name": "_childTokenId",
          "type": "uint256"
        }
      ],
      "name": "safeTransferChild",
      "outputs": [],
      "stateMutability": "nonpayable",
      "type": "function"
    },
    {
      "inputs": [
        {
          "internalType": "uint256",
          "name": "_fromTokenId",
          "type": "uint256"
        },
        {
          "internalType": "address",
          "name": "_to",
          "type": "address"
        },
        {
          "internalType": "address",
          "name": "_childContract",
          "type": "address"
        },
        {
          "internalType": "uint256",
          "name": "_childTokenId",
          "type": "uint256"
        },
        {
          "internalType": "bytes",
          "name": "_data",
          "type": "bytes"
        }
      ],
      "name": "safeTransferChild",
      "outputs": [],
      "stateMutability": "nonpayable",
      "type": "function"
    },
    {
      "inputs": [
        {
          "internalType": "address",
          "name": "_from",
          "type": "address"
        },
        {
          "internalType": "address",
          "name": "_to",
          "type": "address"
        },
        {
          "internalType": "uint256",
          "name": "_tokenId",
          "type": "uint256"
        }
      ],
      "name": "safeTransferFrom",
      "outputs": [],
      "stateMutability": "nonpayable",
      "type": "function"
    },
    {
      "inputs": [
        {
          "internalType": "address",
          "name": "_from",
          "type": "address"
        },
        {
          "internalType": "address",
          "name": "_to",
          "type": "address"
        },
        {
          "internalType": "uint256",
          "name": "_tokenId",
          "type": "uint256"
        },
        {
          "internalType": "bytes",
          "name": "_data",
          "type": "bytes"
        }
      ],
      "name": "safeTransferFrom",
      "outputs": [],
      "stateMutability": "nonpayable",
      "type": "function"
    },
    {
      "inputs": [
        {
          "internalType": "address",
          "name": "_operator",
          "type": "address"
        },
        {
          "internalType": "bool",
          "name": "_approved",
          "type": "bool"
        }
      ],
      "name": "setApprovalForAll",
      "outputs": [],
      "stateMutability": "nonpayable",
      "type": "function"
    },
    {
      "inputs": [
        {
          "internalType": "uint256",
          "name": "tokenId",
          "type": "uint256"
        }
      ],
      "name": "stateHash",
      "outputs": [
        {
          "internalType": "uint256",
          "name": "",
          "type": "uint256"
        }
      ],
      "stateMutability": "view",
      "type": "function",
      "constant": true
    },
    {
      "inputs": [
        {
          "internalType": "bytes4",
          "name": "interfaceId",
          "type": "bytes4"
        }
      ],
      "name": "supportsInterface",
      "outputs": [
        {
          "internalType": "bool",
          "name": "",
          "type": "bool"
        }
      ],
      "stateMutability": "view",
      "type": "function",
      "constant": true
    },
    {
      "inputs": [],
      "name": "symbol",
      "outputs": [
        {
          "internalType": "string",
          "name": "",
          "type": "string"
        }
      ],
      "stateMutability": "view",
      "type": "function",
      "constant": true
    },
    {
      "inputs": [
        {
          "internalType": "address",
          "name": "_from",
          "type": "address"
        },
        {
          "internalType": "uint256",
          "name": "_value",
          "type": "uint256"
        },
        {
          "internalType": "bytes",
          "name": "_data",
          "type": "bytes"
        }
      ],
      "name": "tokenFallback",
      "outputs": [],
      "stateMutability": "nonpayable",
      "type": "function"
    },
    {
      "inputs": [
        {
          "internalType": "uint256",
          "name": "tokenId",
          "type": "uint256"
        }
      ],
      "name": "tokenURI",
      "outputs": [
        {
          "internalType": "string",
          "name": "",
          "type": "string"
        }
      ],
      "stateMutability": "view",
      "type": "function",
      "constant": true
    },
    {
      "inputs": [
        {
          "internalType": "uint256",
          "name": "_tokenId",
          "type": "uint256"
        }
      ],
      "name": "totalChildContracts",
      "outputs": [
        {
          "internalType": "uint256",
          "name": "",
          "type": "uint256"
        }
      ],
      "stateMutability": "view",
      "type": "function",
      "constant": true
    },
    {
      "inputs": [
        {
          "internalType": "uint256",
          "name": "_tokenId",
          "type": "uint256"
        },
        {
          "internalType": "address",
          "name": "_childContract",
          "type": "address"
        }
      ],
      "name": "totalChildTokens",
      "outputs": [
        {
          "internalType": "uint256",
          "name": "",
          "type": "uint256"
        }
      ],
      "stateMutability": "view",
      "type": "function",
      "constant": true
    },
    {
      "inputs": [
        {
          "internalType": "uint256",
          "name": "_tokenId",
          "type": "uint256"
        }
      ],
      "name": "totalERC20Contracts",
      "outputs": [
        {
          "internalType": "uint256",
          "name": "",
          "type": "uint256"
        }
      ],
      "stateMutability": "view",
      "type": "function",
      "constant": true
    },
    {
      "inputs": [
        {
          "internalType": "uint256",
          "name": "_fromTokenId",
          "type": "uint256"
        },
        {
          "internalType": "address",
          "name": "_to",
          "type": "address"
        },
        {
          "internalType": "address",
          "name": "_childContract",
          "type": "address"
        },
        {
          "internalType": "uint256",
          "name": "_childTokenId",
          "type": "uint256"
        }
      ],
      "name": "transferChild",
      "outputs": [],
      "stateMutability": "nonpayable",
      "type": "function"
    },
    {
      "inputs": [
        {
          "internalType": "uint256",
          "name": "_fromTokenId",
          "type": "uint256"
        },
        {
          "internalType": "address",
          "name": "_toContract",
          "type": "address"
        },
        {
          "internalType": "uint256",
          "name": "_toTokenId",
          "type": "uint256"
        },
        {
          "internalType": "address",
          "name": "_childContract",
          "type": "address"
        },
        {
          "internalType": "uint256",
          "name": "_childTokenId",
          "type": "uint256"
        },
        {
          "internalType": "bytes",
          "name": "_data",
          "type": "bytes"
        }
      ],
      "name": "transferChildToParent",
      "outputs": [],
      "stateMutability": "nonpayable",
      "type": "function"
    },
    {
      "inputs": [
        {
          "internalType": "uint256",
          "name": "_tokenId",
          "type": "uint256"
        },
        {
          "internalType": "address",
          "name": "_to",
          "type": "address"
        },
        {
          "internalType": "address",
          "name": "_erc20Contract",
          "type": "address"
        },
        {
          "internalType": "uint256",
          "name": "_value",
          "type": "uint256"
        }
      ],
      "name": "transferERC20",
      "outputs": [],
      "stateMutability": "nonpayable",
      "type": "function"
    },
    {
      "inputs": [
        {
          "internalType": "uint256",
          "name": "_tokenId",
          "type": "uint256"
        },
        {
          "internalType": "address",
          "name": "_to",
          "type": "address"
        },
        {
          "internalType": "address",
          "name": "_erc223Contract",
          "type": "address"
        },
        {
          "internalType": "uint256",
          "name": "_value",
          "type": "uint256"
        },
        {
          "internalType": "bytes",
          "name": "_data",
          "type": "bytes"
        }
      ],
      "name": "transferERC223",
      "outputs": [],
      "stateMutability": "nonpayable",
      "type": "function"
    },
    {
      "inputs": [
        {
          "internalType": "address",
          "name": "_from",
          "type": "address"
        },
        {
          "internalType": "address",
          "name": "_to",
          "type": "address"
        },
        {
          "internalType": "uint256",
          "name": "_tokenId",
          "type": "uint256"
        }
      ],
      "name": "transferFrom",
      "outputs": [],
      "stateMutability": "nonpayable",
      "type": "function"
    },
    {
      "inputs": [
        {
          "internalType": "address",
          "name": "player",
          "type": "address"
        },
        {
          "internalType": "string",
          "name": "tokenURI",
          "type": "string"
        }
      ],
      "name": "createNft",
      "outputs": [
        {
          "internalType": "uint256",
          "name": "",
          "type": "uint256"
        }
      ],
      "stateMutability": "nonpayable",
      "type": "function"
    }
  ],
  "bytecode": "0x6080604052600080553480156200001557600080fd5b5060408051808201825260088152674d657461626f6f6d60c01b60208083019182528351808501909452600384526226aa2160e91b908401528151919291620000619160069162000080565b5080516200007790600790602084019062000080565b50505062000163565b8280546200008e9062000126565b90600052602060002090601f016020900481019282620000b25760008555620000fd565b82601f10620000cd57805160ff1916838001178555620000fd565b82800160010185558215620000fd579182015b82811115620000fd578251825591602001919060010190620000e0565b506200010b9291506200010f565b5090565b5b808211156200010b576000815560010162000110565b6002810460018216806200013b57607f821691505b602082108114156200015d57634e487b7160e01b600052602260045260246000fd5b50919050565b614d5980620001736000396000f3fe608060405234801561001057600080fd5b50600436106102d35760003560e01c806370a0823111610186578063b88d4fde116100e3578063d49d1bac11610097578063eadb80b811610071578063eadb80b8146105e0578063ed81cdda14610601578063f0b9e5ba14610614576102d3565b8063d49d1bac146105a7578063e226ed22146105ba578063e985e9c5146105cd576102d3565b8063bef44f18116100c8578063bef44f181461056e578063c0ee0b8a14610581578063c87b56dd14610594576102d3565b8063b88d4fde14610548578063ba6b5f961461055b576102d3565b806395d89b411161013a578063a22cb4651161011f578063a22cb4651461050f578063a781173214610522578063b4ef6d4814610535576102d3565b806395d89b41146104f4578063a031c832146104fc576102d3565b8063830ef41b1161016b578063830ef41b146104bb5780638d81f51e146104ce5780638da7d0b5146104e1576102d3565b806370a082311461049557806379eda541146104a8576102d3565b80631d98f3c51161023457806343a61a8e116101e85780635680a3ad116101cd5780635680a3ad1461045c578063627c81ff1461046f5780636352211e14610482576102d3565b806343a61a8e146104365780634ff3381614610449576102d3565b806335b21ceb1161021957806335b21ceb146103fd5780633cc8cf1e1461041057806342842e0e14610423576102d3565b80631d98f3c5146103d757806323b872dd146103ea576102d3565b8063095ea7b31161028b578063150b7a0211610270578063150b7a0214610384578063160b01a1146103a45780631c5481e2146103c4576102d3565b8063095ea7b31461035e5780630d5a621b14610371576102d3565b806307cff6f2116102bc57806307cff6f214610316578063081812fc1461032b57806308937f621461034b576102d3565b806301ffc9a7146102d857806306fdde0314610301575b600080fd5b6102eb6102e63660046134ed565b610627565b6040516102f891906138b8565b60405180910390f35b610309610771565b6040516102f891906138e1565b6103296103243660046133d9565b610803565b005b61033e610339366004613525565b610a01565b6040516102f8919061376a565b610329610359366004613632565b610a3b565b61032961036c3660046133ae565b610b1a565b61033e61037f3660046136ae565b610bf0565b610397610392366004613186565b610c11565b6040516102f891906138cc565b6103b76103b236600461360c565b610d39565b6040516102f891906138c3565b6103296103d2366004613261565b610d6d565b6103296103e5366004613561565b610dab565b6103296103f8366004613146565b610e84565b6103b761040b36600461353d565b610e94565b61032961041e3660046132a6565b610ebf565b610329610431366004613146565b610f36565b6103b7610444366004613525565b61102a565b6103b7610457366004613525565b611037565b6102eb61046a3660046133ae565b611063565b61033e61047d3660046136ae565b61108d565b61033e610490366004613525565b6110a5565b6103b76104a33660046130d6565b6110da565b6103296104b6366004613261565b61111e565b6103296104c9366004613561565b611156565b6103296104dc366004613598565b611321565b6103b76104ef366004613525565b6113ee565b610309611405565b6103b761050a3660046130d6565b611414565b61032961051d366004613320565b611554565b6103b7610530366004613525565b6115e9565b6103b761054336600461334d565b611600565b6103296105563660046131f7565b611618565b6103296105693660046133d9565b611717565b61032961057c366004613561565b6118fb565b61032961058f36600461347a565b6119ff565b6103096105a2366004613525565b611a5e565b6103296105b5366004613598565b611b75565b6103b76105c836600461353d565b611d33565b6102eb6105db36600461310e565b611d5b565b6105f36105ee3660046133ae565b611dd8565b6040516102f8929190613746565b6103b761060f3660046133ae565b611e43565b610397610622366004613420565b611fd5565b60006001600160e01b031982167f80ac58cd00000000000000000000000000000000000000000000000000000000148061068a57506001600160e01b031982167fcde244d900000000000000000000000000000000000000000000000000000000145b806106be57506001600160e01b031982167fa344afe400000000000000000000000000000000000000000000000000000000145b806106f257506001600160e01b031982167f7294ffed00000000000000000000000000000000000000000000000000000000145b8061072657506001600160e01b031982167fc5fd96cd00000000000000000000000000000000000000000000000000000000145b8061075a57507f1bc995e4000000000000000000000000000000000000000000000000000000006001600160e01b03198316145b806107695750610769826120fc565b90505b919050565b60606006805461078090614c65565b80601f01602080910402602001604051908101604052809291908181526020018280546107ac90614c65565b80156107f95780601f106107ce576101008083540402835291602001916107f9565b820191906000526020600020905b8154815290600101906020018083116107dc57829003601f168201915b5050505050905090565b6001600160a01b0384163314806109335760007fdd62ed3e90e97b3d417db9c0c7522647811bafca5afc6694f143588d255fdfb4863360405160240161084a92919061377e565b604051602081830303815290604052906001600160e01b0319166020820180516001600160e01b0383818316178352505050509050600080856001600160a01b03168360405161089a91906136fb565b600060405180830381855afa9150503d80600081146108d5576040519150601f19603f3d011682016040523d82523d6000602084013e6108da565b606091505b5091509150816109055760405162461bcd60e51b81526004016108fc90614b77565b60405180910390fd5b60208101518581101561092a5760405162461bcd60e51b81526004016108fc90613d43565b60019450505050505b806109505760405162461bcd60e51b81526004016108fc90613ff5565b61095c8585858561212e565b6040516323b872dd60e01b81526001600160a01b038416906323b872dd9061098c90889030908790600401613798565b602060405180830381600087803b1580156109a657600080fd5b505af11580156109ba573d6000803e3d6000fd5b505050506040513d601f19601f820116820180604052508101906109de91906134d1565b6109fa5760405162461bcd60e51b81526004016108fc90613e24565b5050505050565b600080610a0d8361102a565b6001600160a01b03908116600090815260036020908152604080832087845290915290205416915050919050565b610a4786868585612247565b6040517ff50acfa00000000000000000000000000000000000000000000000000000000081526001600160a01b0384169063f50acfa090610a94903090899089908890889060040161382b565b600060405180830381600087803b158015610aae57600080fd5b505af1158015610ac2573d6000803e3d6000fd5b50505050826001600160a01b0316856001600160a01b0316877f0ef52e516fb5aec15a5d3587e5480481b702b26db93c8430eca78b61990fd3f685604051610b0a91906138c3565b60405180910390a4505050505050565b6000610b258261102a565b90506001600160a01b038116331480610b6157506001600160a01b038116600090815260056020908152604080832033845290915290205460ff165b610b7d5760405162461bcd60e51b81526004016108fc90614477565b6001600160a01b038181166000818152600360209081526040808320878452909152808220805473ffffffffffffffffffffffffffffffffffffffff1916948816948517905551859392917f8c5be1e5ebec7d5bd14f71427d1e84f3dd0314c0f7b2291e5b200ac8c7c3b92591a4505050565b6000828152600960205260408120610c08908361236a565b90505b92915050565b600081610c305760405162461bcd60e51b81526004016108fc90613c4e565b6000610c7184848080601f01602080910402602001604051908101604052809392919081815260200183838082843760009201919091525061237692505050565b9050610c7f868233886123a8565b6040516331a9108f60e11b81526000903390636352211e90610ca59089906004016138c3565b60206040518083038186803b158015610cbd57600080fd5b505afa158015610cd1573d6000803e3d6000fd5b505050506040513d601f19601f82011682018060405250810190610cf591906130f2565b6001600160a01b03161415610d1c5760405162461bcd60e51b81526004016108fc90613ede565b610d258161102a565b50630a85bd0160e11b979650505050505050565b6000838152600a602090815260408083206001600160a01b03861684529091528120610d65908361236a565b949350505050565b6000828152600260205260409020548114610d9a5760405162461bcd60e51b81526004016108fc906149a6565b610da5848484610e84565b50505050565b610db784848484612247565b6040517f42842e0e0000000000000000000000000000000000000000000000000000000081526001600160a01b038316906342842e0e90610e0090309087908690600401613798565b600060405180830381600087803b158015610e1a57600080fd5b505af1158015610e2e573d6000803e3d6000fd5b50505050816001600160a01b0316836001600160a01b0316857f0ef52e516fb5aec15a5d3587e5480481b702b26db93c8430eca78b61990fd3f684604051610e7691906138c3565b60405180910390a450505050565b610e8f838383612547565b505050565b6000828152600a602090815260408083206001600160a01b03851684529091528120610c0890612905565b6000848152600260205260409020548314610eec5760405162461bcd60e51b81526004016108fc90613b37565b610f2e86868685858080601f01602080910402602001604051908101604052809392919081815260200183838082843760009201919091525061161892505050565b505050505050565b610f41838383612547565b610f53826001600160a01b0316612910565b15610e8f57604051630a85bd0160e11b81526000906001600160a01b0384169063150b7a0290610f8b903390889087906004016137f8565b602060405180830381600087803b158015610fa557600080fd5b505af1158015610fb9573d6000803e3d6000fd5b505050506040513d601f19601f82011682018060405250810190610fdd9190613509565b90506001600160e01b0319811663785cf2dd60e11b148061100e57506001600160e01b03198116630a85bd0160e11b145b610da55760405162461bcd60e51b81526004016108fc906147f7565b6000610769600083611e43565b600081815260026020526040812054806107695760405162461bcd60e51b81526004016108fc90614a60565b6001600160a01b03919091166000908152600b602090815260408083209383529290522054151590565b6000828152600c60205260408120610c08908361236a565b6000818152600160205260409020546001600160a01b03168061076c5760405162461bcd60e51b81526004016108fc906143bd565b60006001600160a01b0382166111025760405162461bcd60e51b81526004016108fc90613e81565b506001600160a01b031660009081526004602052604090205490565b600082815260026020526040902054811461114b5760405162461bcd60e51b81526004016108fc90614626565b610da5848484610f36565b6001600160a01b03831661117c5760405162461bcd60e51b81526004016108fc90613f3b565b60006111878561102a565b90506001600160a01b0381163314806111c357506001600160a01b038116600090815260056020908152604080832033845290915290205460ff165b806111f257506001600160a01b0381811660009081526003602090815260408083208984529091529020541633145b61120e5760405162461bcd60e51b81526004016108fc906145c9565b611219858484612916565b6040517fa9059cbb0000000000000000000000000000000000000000000000000000000081526001600160a01b0384169063a9059cbb90611260908790869060040161386e565b602060405180830381600087803b15801561127a57600080fd5b505af115801561128e573d6000803e3d6000fd5b505050506040513d601f19601f820116820180604052508101906112b291906134d1565b6112ce5760405162461bcd60e51b81526004016108fc90613a7d565b826001600160a01b0316846001600160a01b0316867fa8352277873fc0d2b233b8127433da351a4164fa701ed6ff79655694222932c48560405161131291906138c3565b60405180910390a45050505050565b61132d85858585612247565b6040517fb88d4fde0000000000000000000000000000000000000000000000000000000081526001600160a01b0384169063b88d4fde906113789030908890879087906004016137bc565b600060405180830381600087803b15801561139257600080fd5b505af11580156113a6573d6000803e3d6000fd5b50505050826001600160a01b0316846001600160a01b0316867f0ef52e516fb5aec15a5d3587e5480481b702b26db93c8430eca78b61990fd3f68560405161131291906138c3565b600081815260096020526040812061076990612905565b60606007805461078090614c65565b60006001600160a01b03821661143c5760405162461bcd60e51b81526004016108fc90613f98565b60008054908061144b83614ca0565b909155505060008054808252600160209081526040808420805473ffffffffffffffffffffffffffffffffffffffff19166001600160a01b038816908117909155845260049091528220805491926114a283614ca0565b90915550506000546040516114bb913091602001613746565b60408051601f19818403018152828252805160209182012060008054815260028352838120919091559083019091528082526114fa91859084906129bf565b6115165760405162461bcd60e51b81526004016108fc9061441a565b60405181906001600160a01b038516906000907fddf252ad1be2c89b69c2b068fc378daa952ba7f163c4a11628f55a4df523b3ef908290a492915050565b6001600160a01b03821661157a5760405162461bcd60e51b81526004016108fc906144d4565b3360008181526005602090815260408083206001600160a01b038716808552925291829020805460ff191685151517905590519091907f17307eab39ab6107e8899845ad3d59bd9653f200f220920489ca2b5937696c31906115dd9085906138b8565b60405180910390a35050565b6000818152600c6020526040812061076990612905565b60008061160c84611414565b9050610c088184612ad0565b611623848484612547565b611635836001600160a01b0316612910565b15610da557604051630a85bd0160e11b81526000906001600160a01b0385169063150b7a029061166f9033908990889088906004016137bc565b602060405180830381600087803b15801561168957600080fd5b505af115801561169d573d6000803e3d6000fd5b505050506040513d601f19601f820116820180604052508101906116c19190613509565b90506001600160e01b0319811663785cf2dd60e11b14806116f257506001600160e01b03198116630a85bd0160e11b145b61170e5760405162461bcd60e51b81526004016108fc90613951565b610f2e8361102a565b611723848484846123a8565b6001600160a01b0384163314806117cc57506040517fe985e9c50000000000000000000000000000000000000000000000000000000081526001600160a01b0383169063e985e9c59061177c908790339060040161377e565b60206040518083038186803b15801561179457600080fd5b505afa1580156117a8573d6000803e3d6000fd5b505050506040513d601f19601f820116820180604052508101906117cc91906134d1565b8061187457506040517f081812fc00000000000000000000000000000000000000000000000000000000815233906001600160a01b0384169063081812fc906118199085906004016138c3565b60206040518083038186803b15801561183157600080fd5b505afa158015611845573d6000803e3d6000fd5b505050506040513d601f19601f8201168201806040525081019061186991906130f2565b6001600160a01b0316145b6118905760405162461bcd60e51b81526004016108fc90614a03565b6040516323b872dd60e01b81526001600160a01b038316906323b872dd906118c090879030908690600401613798565b600060405180830381600087803b1580156118da57600080fd5b505af11580156118ee573d6000803e3d6000fd5b505050506109fa8361102a565b61190784848484612247565b60007f095ea7b334ae44009aa867bfb386f5c3b4b443ac6f0ee573fa91c4608fbadfba308360405160240161193d92919061386e565b604051602081830303815290604052906001600160e01b0319166020820180516001600160e01b0383818316178352505050509050826001600160a01b03168160405161198a91906136fb565b6000604051808303816000865af19150503d80600081146119c7576040519150601f19603f3d011682016040523d82523d6000602084013e6119cc565b606091505b50506040516323b872dd60e01b81526001600160a01b03851691506323b872dd9061137890309088908790600401613798565b6000815111611a205760405162461bcd60e51b81526004016108fc90613da0565b611a2933612910565b611a455760405162461bcd60e51b81526004016108fc90614683565b6000611a5082612376565b9050610da58482338661212e565b6060611a6982612b14565b611a855760405162461bcd60e51b81526004016108fc90614360565b60008281526008602052604081208054611a9e90614c65565b80601f0160208091040260200160405190810160405280929190818152602001828054611aca90614c65565b8015611b175780601f10611aec57610100808354040283529160200191611b17565b820191906000526020600020905b815481529060010190602001808311611afa57829003601f168201915b505050505090506000611b28612b31565b9050805160001415611b3c5750905061076c565b815115611b6e578082604051602001611b56929190613717565b6040516020818303038152906040529250505061076c565b5092915050565b6001600160a01b038416611b9b5760405162461bcd60e51b81526004016108fc906139c3565b6000611ba68661102a565b90506001600160a01b038116331480611be257506001600160a01b038116600090815260056020908152604080832033845290915290205460ff165b80611c1157506001600160a01b0381811660009081526003602090815260408083208a84529091529020541633145b611c2d5760405162461bcd60e51b81526004016108fc906142a6565b611c38868585612916565b6040517fbe45fd620000000000000000000000000000000000000000000000000000000081526001600160a01b0385169063be45fd6290611c8190889087908790600401613887565b602060405180830381600087803b158015611c9b57600080fd5b505af1158015611caf573d6000803e3d6000fd5b505050506040513d601f19601f82011682018060405250810190611cd391906134d1565b611cef5760405162461bcd60e51b81526004016108fc90614b1a565b836001600160a01b0316856001600160a01b0316877fa8352277873fc0d2b233b8127433da351a4164fa701ed6ff79655694222932c486604051610b0a91906138c3565b6000918252600d602090815260408084206001600160a01b0393909316845291905290205490565b60006001600160a01b038316611d835760405162461bcd60e51b81526004016108fc90614869565b6001600160a01b038216611da95760405162461bcd60e51b81526004016108fc90614949565b506001600160a01b03918216600090815260056020908152604080832093909416825291909152205460ff1690565b6001600160a01b0382166000908152600b6020908152604080832084845290915281205480611e195760405162461bcd60e51b81526004016108fc9061473d565b6000818152600160205260409020546001600160a01b031663cd740db560e01b1794909350915050565b6000806001600160a01b03841615611e6857611e5f8484612b43565b93509050611e9e565b506000828152600160205260409020546001600160a01b031680611e9e5760405162461bcd60e51b81526004016108fc906143bd565b6001600160a01b038116301415611eb957611e5f8184612b43565b60007fed81cdda615fca130279b404b909f51438f5997d5ab9a459aecb921fbd297b6d3085604051602401611eef92919061386e565b604051602081830303815290604052906001600160e01b0319166020820180516001600160e01b0383818316178352505050509050600080836001600160a01b031683604051611f3f91906136fb565b600060405180830381855afa9150503d8060008114611f7a576040519150601f19603f3d011682016040523d82523d6000602084013e611f7f565b606091505b50915091508115611f9257602081015194505b6001821515148015611fb457506001600160e01b0319851663cd740db560e01b145b15611fc25750505050610c0b565b50505063cd740db560e01b179392505050565b600081611ff45760405162461bcd60e51b81526004016108fc90614531565b600061203584848080601f01602080910402602001604051908101604052809392919081815260200183838082843760009201919091525061237692505050565b9050612043868233886123a8565b6040516331a9108f60e11b81526000903390636352211e906120699089906004016138c3565b60206040518083038186803b15801561208157600080fd5b505afa158015612095573d6000803e3d6000fd5b505050506040513d601f19601f820116820180604052508101906120b991906130f2565b6001600160a01b031614156120e05760405162461bcd60e51b81526004016108fc9061479a565b6120e98161102a565b5063785cf2dd60e11b9695505050505050565b6001600160e01b031981167f01ffc9a70000000000000000000000000000000000000000000000000000000014919050565b6000838152600160205260409020546001600160a01b03166121625760405162461bcd60e51b81526004016108fc90614303565b8061216c57610da5565b6000838152600d602090815260408083206001600160a01b0386168452909152902054806121ae576000848152600c602052604090206121ac9084612ba6565b505b6000848152600d602090815260408083206001600160a01b0387168452909152812080548492906121e0908490614bd4565b909155506122039050846001600160a01b0385166121fe8585614bd4565b612bbb565b826001600160a01b031684866001600160a01b03167f684ce28ace37552c6bfb98b7cceda8ed55327078eafb5dfb31218e08563827638560405161131291906138c3565b6001600160a01b0382166000908152600b60209081526040808320848452909152902054806122885760405162461bcd60e51b81526004016108fc906141c6565b8481146122a75760405162461bcd60e51b81526004016108fc90613b94565b6001600160a01b0384166122cd5760405162461bcd60e51b81526004016108fc90614052565b60006122d88261102a565b90506001600160a01b03811633148061231457506001600160a01b038116600090815260056020908152604080832033845290915290205460ff165b8061234357506001600160a01b0381811660009081526003602090815260408083208684529091529020541633145b61235f5760405162461bcd60e51b81526004016108fc9061410c565b610f2e828585612c90565b6000610c088383612d8a565b60006020820151905060208251101561076c578151612396906008614bec565b6123a290610100614c0b565b1c919050565b6000838152600160205260409020546001600160a01b03166123dc5760405162461bcd60e51b81526004016108fc90614249565b6001600160a01b0382166000908152600b6020908152604080832084845290915290205483141561241f5760405162461bcd60e51b81526004016108fc90613ce6565b6000838152600a602090815260408083206001600160a01b0386168452909152812061244a90612905565b90508061246b5760008481526009602052604090206124699084612ba6565b505b6000848152600a602090815260408083206001600160a01b038716845290915290206124979083612dc2565b506001600160a01b0383166000818152600b6020908152604080832086845290915290208590553014156124ef576000828152600260205260409020546124ea9085906001600160a01b03861690612bbb565b612503565b61250384846001600160a01b031684612bbb565b826001600160a01b031684866001600160a01b03167f0371ddf2288ad1ba92626a7e31c86a9d006e592cfe57d7d946ef08b13457c08b8560405161131291906138c3565b6001600160a01b03831661256d5760405162461bcd60e51b81526004016108fc906138f4565b6000818152600160205260409020546001600160a01b038481169116146125a65760405162461bcd60e51b81526004016108fc90614abd565b6001600160a01b0382166125cc5760405162461bcd60e51b81526004016108fc90613ada565b336001600160a01b038416146127615760007fed81cdda615fca130279b404b909f51438f5997d5ab9a459aecb921fbd297b6d308360405160240161261292919061386e565b604051602081830303815290604052906001600160e01b0319166020820180516001600160e01b0383818316178352505050509050600080856001600160a01b03168360405161266291906136fb565b600060405180830381855afa9150503d806000811461269d576040519150601f19603f3d011682016040523d82523d6000602084013e6126a2565b606091505b509092509050600182151514156126eb5760208101516001600160e01b0319811663cd740db560e01b14156126e95760405162461bcd60e51b81526004016108fc906148c6565b505b6001600160a01b038616600090815260056020908152604080832033845290915290205460ff168061274157506001600160a01b0386811660009081526003602090815260408083208884529091529020541633145b61275d5760405162461bcd60e51b81526004016108fc906140af565b5050505b6001600160a01b03838116600090815260036020908152604080832085845290915290205416156127f5576001600160a01b0383166000818152600360209081526040808320858452909152808220805473ffffffffffffffffffffffffffffffffffffffff19169055518392907f8c5be1e5ebec7d5bd14f71427d1e84f3dd0314c0f7b2291e5b200ac8c7c3b925908390a45b816001600160a01b0316836001600160a01b0316146128bf576001600160a01b03831660009081526004602052604090205461284157634e487b7160e01b600052600160045260246000fd5b6001600160a01b038316600090815260046020526040812080549161286583614c4e565b90915550506000818152600160209081526040808320805473ffffffffffffffffffffffffffffffffffffffff19166001600160a01b0387169081179091558352600490915281208054916128b983614ca0565b91905055505b80826001600160a01b0316846001600160a01b03167fddf252ad1be2c89b69c2b068fc378daa952ba7f163c4a11628f55a4df523b3ef60405160405180910390a4505050565b600061076982612dce565b3b151590565b8061292057610e8f565b6000838152600d602090815260408083206001600160a01b0386168452909152902054818110156129635760405162461bcd60e51b81526004016108fc90613a20565b6000848152600d602090815260408083206001600160a01b0387168452909152902082820390819055806129ab576000858152600c602052604090206129a99085612dd2565b505b6109fa85856001600160a01b031683612bbb565b60006129d3846001600160a01b0316612910565b15612ac857604051630a85bd0160e11b81526001600160a01b0385169063150b7a0290612a0a9033908990889088906004016137bc565b602060405180830381600087803b158015612a2457600080fd5b505af1925050508015612a54575060408051601f3d908101601f19168201909252612a5191810190613509565b60015b612aae573d808015612a82576040519150601f19603f3d011682016040523d82523d6000602084013e612a87565b606091505b508051612aa65760405162461bcd60e51b81526004016108fc90613bf1565b805181602001fd5b6001600160e01b031916630a85bd0160e11b149050610d65565b506001610d65565b612ad982612b14565b612af55760405162461bcd60e51b81526004016108fc90614169565b60008281526008602090815260409091208251610e8f92840190612f6e565b6000908152600160205260409020546001600160a01b0316151590565b60408051602081019091526000815290565b6001600160a01b0382166000908152600b6020908152604080832084845290915281205480612b845760405162461bcd60e51b81526004016108fc906146e0565b6000818152600160205260409020546001600160a01b031691505b9250929050565b6000610c08836001600160a01b038416612de7565b6000838152600260209081526040808320549051612bdd928691869101613754565b60408051601f19818403018152918152815160209283012060008781526002909352912081905590505b6000848152600160205260409020546001600160a01b0316301415610da557306000818152600b602090815260408083209783529681528682205480835260028252918790205496519196612c629390929091859101613754565b60408051601f1981840301815291815281516020928301206000878152600290935291208190559050612c07565b6000838152600a602090815260408083206001600160a01b03861684529091528120600190612cbe90612905565b612cc89190614c0b565b6000858152600a602090815260408083206001600160a01b03881684529091529020909150612cf79083612e31565b506001600160a01b0383166000908152600b6020908152604080832085845290915281205580612d3b576000848152600960205260409020612d399084612dd2565b505b6001600160a01b038316301415612d7657600082815260026020526040902054612d719085906001600160a01b03861690612bbb565b610da5565b610da584846001600160a01b031684612bbb565b6000826000018281548110612daf57634e487b7160e01b600052603260045260246000fd5b9060005260206000200154905092915050565b6000610c088383612de7565b5490565b6000610c08836001600160a01b038416612e39565b6000612df38383612f56565b612e2957508154600181810184556000848152602080822090930184905584548482528286019093526040902091909155610c0b565b506000610c0b565b6000610c0883835b60008181526001830160205260408120548015612f4c576000612e5d600183614c0b565b8554909150600090612e7190600190614c0b565b9050818114612ef2576000866000018281548110612e9f57634e487b7160e01b600052603260045260246000fd5b9060005260206000200154905080876000018481548110612ed057634e487b7160e01b600052603260045260246000fd5b6000918252602080832090910192909255918252600188019052604090208390555b8554869080612f1157634e487b7160e01b600052603160045260246000fd5b600190038181906000526020600020016000905590558560010160008681526020019081526020016000206000905560019350505050610c0b565b6000915050610c0b565b60009081526001919091016020526040902054151590565b828054612f7a90614c65565b90600052602060002090601f016020900481019282612f9c5760008555612fe2565b82601f10612fb557805160ff1916838001178555612fe2565b82800160010185558215612fe2579182015b82811115612fe2578251825591602001919060010190612fc7565b50612fee929150612ff2565b5090565b5b80821115612fee5760008155600101612ff3565b600067ffffffffffffffff8084111561302257613022614cd1565b604051601f8501601f19168101602001828111828210171561304657613046614cd1565b60405284815291508183850186101561305e57600080fd5b8484602083013760006020868301015250509392505050565b60008083601f840112613088578182fd5b50813567ffffffffffffffff81111561309f578182fd5b602083019150836020828501011115612b9f57600080fd5b600082601f8301126130c7578081fd5b610c0883833560208501613007565b6000602082840312156130e7578081fd5b8135610c0881614ce7565b600060208284031215613103578081fd5b8151610c0881614ce7565b60008060408385031215613120578081fd5b823561312b81614ce7565b9150602083013561313b81614ce7565b809150509250929050565b60008060006060848603121561315a578081fd5b833561316581614ce7565b9250602084013561317581614ce7565b929592945050506040919091013590565b60008060008060006080868803121561319d578081fd5b85356131a881614ce7565b945060208601356131b881614ce7565b935060408601359250606086013567ffffffffffffffff8111156131da578182fd5b6131e688828901613077565b969995985093965092949392505050565b6000806000806080858703121561320c578384fd5b843561321781614ce7565b9350602085013561322781614ce7565b925060408501359150606085013567ffffffffffffffff811115613249578182fd5b613255878288016130b7565b91505092959194509250565b60008060008060808587031215613276578384fd5b843561328181614ce7565b9350602085013561329181614ce7565b93969395505050506040820135916060013590565b60008060008060008060a087890312156132be578081fd5b86356132c981614ce7565b955060208701356132d981614ce7565b94506040870135935060608701359250608087013567ffffffffffffffff811115613302578182fd5b61330e89828a01613077565b979a9699509497509295939492505050565b60008060408385031215613332578182fd5b823561333d81614ce7565b9150602083013561313b81614cff565b6000806040838503121561335f578182fd5b823561336a81614ce7565b9150602083013567ffffffffffffffff811115613385578182fd5b8301601f81018513613395578182fd5b6133a485823560208401613007565b9150509250929050565b600080604083850312156133c0578182fd5b82356133cb81614ce7565b946020939093013593505050565b600080600080608085870312156133ee578182fd5b84356133f981614ce7565b935060208501359250604085013561341081614ce7565b9396929550929360600135925050565b60008060008060608587031215613435578182fd5b843561344081614ce7565b935060208501359250604085013567ffffffffffffffff811115613462578283fd5b61346e87828801613077565b95989497509550505050565b60008060006060848603121561348e578081fd5b833561349981614ce7565b925060208401359150604084013567ffffffffffffffff8111156134bb578182fd5b6134c7868287016130b7565b9150509250925092565b6000602082840312156134e2578081fd5b8151610c0881614cff565b6000602082840312156134fe578081fd5b8135610c0881614d0d565b60006020828403121561351a578081fd5b8151610c0881614d0d565b600060208284031215613536578081fd5b5035919050565b6000806040838503121561354f578182fd5b82359150602083013561313b81614ce7565b60008060008060808587031215613576578182fd5b84359350602085013561358881614ce7565b9250604085013561341081614ce7565b600080600080600060a086880312156135af578283fd5b8535945060208601356135c181614ce7565b935060408601356135d181614ce7565b925060608601359150608086013567ffffffffffffffff8111156135f3578182fd5b6135ff888289016130b7565b9150509295509295909350565b600080600060608486031215613620578081fd5b83359250602084013561317581614ce7565b60008060008060008060c0878903121561364a578384fd5b86359550602087013561365c81614ce7565b945060408701359350606087013561367381614ce7565b92506080870135915060a087013567ffffffffffffffff811115613695578182fd5b6136a189828a016130b7565b9150509295509295509295565b600080604083850312156136c0578182fd5b50508035926020909101359150565b600081518084526136e7816020860160208601614c22565b601f01601f19169290920160200192915050565b6000825161370d818460208701614c22565b9190910192915050565b60008351613729818460208801614c22565b83519083019061373d818360208801614c22565b01949350505050565b918252602082015260400190565b9283526020830191909152604082015260600190565b6001600160a01b0391909116815260200190565b6001600160a01b0392831681529116602082015260400190565b6001600160a01b039384168152919092166020820152604081019190915260600190565b60006001600160a01b038087168352808616602084015250836040830152608060608301526137ee60808301846136cf565b9695505050505050565b6001600160a01b039384168152919092166020820152604081019190915260806060820181905260009082015260a00190565b60006001600160a01b03808816835280871660208401525084604083015283606083015260a0608083015261386360a08301846136cf565b979650505050505050565b6001600160a01b03929092168252602082015260400190565b60006001600160a01b0385168252836020830152606060408301526138af60608301846136cf565b95945050505050565b901515815260200190565b90815260200190565b6001600160e01b031991909116815260200190565b600060208252610c0860208301846136cf565b60208082526033908201527f436f6d706f7361626c65546f70446f776e3a205f7472616e7366657246726f6d60408201527f205f66726f6d207a65726f206164647265737300000000000000000000000000606082015260800190565b6020808252604c908201527f436f6d706f7361626c65546f70446f776e3a20736166655472616e736665724660408201527f726f6d283429206f6e455243373231526563656976656420696e76616c69642060608201526b72657475726e2076616c756560a01b608082015260a00190565b60208082526032908201527f436f6d706f7361626c65546f70446f776e3a207472616e73666572455243323260408201527f33205f746f207a65726f20616464726573730000000000000000000000000000606082015260800190565b6020808252602f908201527f436f6d706f7361626c65546f70446f776e3a2072656d6f76654552433230207660408201527f616c7565206e6f7420656e6f7567680000000000000000000000000000000000606082015260800190565b60208082526030908201527f436f6d706f7361626c65546f70446f776e3a207472616e73666572455243323060408201527f207472616e73666572206661696c656400000000000000000000000000000000606082015260800190565b60208082526031908201527f436f6d706f7361626c65546f70446f776e3a205f7472616e7366657246726f6d60408201527f205f746f207a65726f2061646472657373000000000000000000000000000000606082015260800190565b60208082526029908201527f436f6d706f7361626c65546f70446f776e3a20737461746548617368206d697360408201527f6d61746368202833290000000000000000000000000000000000000000000000606082015260800190565b60208082526035908201527f436f6d706f7361626c65546f70446f776e3a205f7472616e736665724368696c60408201527f642077726f6e6720746f6b656e496420666f756e640000000000000000000000606082015260800190565b60208082526032908201527f4552433732313a207472616e7366657220746f206e6f6e20455243373231526560408201527f63656976657220696d706c656d656e7465720000000000000000000000000000606082015260800190565b6020808252606c908201527f436f6d706f7361626c65546f70446f776e3a206f6e455243373231526563656960408201527f766564283429205f64617461206d75737420636f6e7461696e2074686520756960608201527f6e7432353620746f6b656e496420746f207472616e736665722074686520636860808201526b696c6420746f6b656e20746f60a01b60a082015260c00190565b6020808252603e908201527f436f6d706f7361626c65546f70446f776e3a20726563656976654368696c642060408201527f5f6368696c64546f6b656e496420616c72656164792072656365697665640000606082015260800190565b60208082526038908201527f436f6d706f7361626c65546f70446f776e3a2067657445524332302076616c7560408201527f652067726561746572207468616e2072656d61696e696e670000000000000000606082015260800190565b602080825260609082018190527f436f6d706f7361626c65546f70446f776e3a20746f6b656e46616c6c6261636b60408301527f205f64617461206d75737420636f6e7461696e207468652075696e7432353620908201527f746f6b656e496420746f207472616e736665722074686520746f6b656e20746f608082015260a00190565b6020808252602b908201527f436f6d706f7361626c65546f70446f776e3a206765744552433230207472616e60408201527f73666572206661696c6564000000000000000000000000000000000000000000606082015260800190565b60208082526035908201527f436f6d706f7361626c65546f70446f776e3a2062616c616e63654f66205f746f60408201527f6b656e4f776e6572207a65726f20616464726573730000000000000000000000606082015260800190565b6020808252603c908201527f436f6d706f7361626c65546f70446f776e3a206f6e455243373231526563656960408201527f766564283429206368696c6420746f6b656e206e6f74206f776e656400000000606082015260800190565b60208082526031908201527f436f6d706f7361626c65546f70446f776e3a207472616e73666572455243323060408201527f205f746f207a65726f2061646472657373000000000000000000000000000000606082015260800190565b60208082526023908201527f436f6d706f7361626c65546f70446f776e3a205f746f207a65726f206164647260408201527f6573730000000000000000000000000000000000000000000000000000000000606082015260800190565b60208082526033908201527f436f6d706f7361626c65546f70446f776e3a206765744552433230206e6f742060408201527f616c6c6f77656420746f20676574455243323000000000000000000000000000606082015260800190565b60208082526032908201527f436f6d706f7361626c65546f70446f776e3a205f7472616e736665724368696c60408201527f64205f746f207a65726f20616464726573730000000000000000000000000000606082015260800190565b60208082526038908201527f436f6d706f7361626c65546f70446f776e3a205f7472616e7366657246726f6d60408201527f206d73672e73656e646572206e6f7420617070726f7665640000000000000000606082015260800190565b60208082526039908201527f436f6d706f7361626c65546f70446f776e3a205f7472616e736665724368696c60408201527f64206d73672e73656e646572206e6f7420656c696769626c6500000000000000606082015260800190565b6020808252602e908201527f45524337323155524953746f726167653a2055524920736574206f66206e6f6e60408201527f6578697374656e7420746f6b656e000000000000000000000000000000000000606082015260800190565b60208082526048908201527f436f6d706f7361626c65546f70446f776e3a205f7472616e736665724368696c60408201527f64205f6368696c64436f6e7472616374205f6368696c64546f6b656e4964206e60608201527f6f7420666f756e64000000000000000000000000000000000000000000000000608082015260a00190565b60208082526038908201527f436f6d706f7361626c65546f70446f776e3a20726563656976654368696c642060408201527f5f746f6b656e496420646f6573206e6f742065786973742e0000000000000000606082015260800190565b60208082526039908201527f436f6d706f7361626c65546f70446f776e3a207472616e73666572455243323260408201527f33206d73672e73656e646572206e6f7420656c696769626c6500000000000000606082015260800190565b60208082526038908201527f436f6d706f7361626c65546f70446f776e3a206572633230526563656976656460408201527f205f746f6b656e496420646f6573206e6f742065786973740000000000000000606082015260800190565b60208082526031908201527f45524337323155524953746f726167653a2055524920717565727920666f722060408201527f6e6f6e6578697374656e7420746f6b656e000000000000000000000000000000606082015260800190565b60208082526030908201527f436f6d706f7361626c65546f70446f776e3a206f776e65724f66205f746f6b6560408201527f6e4964207a65726f206164647265737300000000000000000000000000000000606082015260800190565b6020808252603d908201527f436f6d706f7361626c65546f70446f776e3a207472616e7366657220746f206e60408201527f6f6e20455243373231526563656976657220696d706c656d656e746572000000606082015260800190565b6020808252602f908201527f436f6d706f7361626c65546f70446f776e3a20617070726f7665206d73672e7360408201527f656e646572206e6f74206f776e65720000000000000000000000000000000000606082015260800190565b6020808252603b908201527f436f6d706f7361626c65546f70446f776e3a20736574417070726f76616c466f60408201527f72416c6c205f6f70657261746f72207a65726f20616464726573730000000000606082015260800190565b6020808252606c908201527f436f6d706f7361626c65546f70446f776e3a206f6e455243373231526563656960408201527f766564283329205f64617461206d75737420636f6e7461696e2074686520756960608201527f6e7432353620746f6b656e496420746f207472616e736665722074686520636860808201526b696c6420746f6b656e20746f60a01b60a082015260c00190565b60208082526038908201527f436f6d706f7361626c65546f70446f776e3a207472616e73666572455243323060408201527f206d73672e73656e646572206e6f7420656c696769626c650000000000000000606082015260800190565b60208082526029908201527f436f6d706f7361626c65546f70446f776e3a20737461746548617368206d697360408201527f6d61746368202831290000000000000000000000000000000000000000000000606082015260800190565b6020808252603d908201527f436f6d706f7361626c65546f70446f776e3a20746f6b656e46616c6c6261636b60408201527f206d73672e73656e646572206973206e6f74206120636f6e7472616374000000606082015260800190565b6020808252602a908201527f436f6d706f7361626c65546f70446f776e3a205f6f776e65724f664368696c6460408201527f206e6f7420666f756e6400000000000000000000000000000000000000000000606082015260800190565b60208082526029908201527f436f6d706f7361626c65546f70446f776e3a206f776e65724f664368696c642060408201527f6e6f7420666f756e640000000000000000000000000000000000000000000000606082015260800190565b6020808252603c908201527f436f6d706f7361626c65546f70446f776e3a206f6e455243373231526563656960408201527f766564283329206368696c6420746f6b656e206e6f74206f776e656400000000606082015260800190565b6020808252604c908201527f436f6d706f7361626c65546f70446f776e3a20736166655472616e736665724660408201527f726f6d283329206f6e455243373231526563656976656420696e76616c69642060608201526b72657475726e2076616c756560a01b608082015260a00190565b60208082526037908201527f436f6d706f7361626c65546f70446f776e3a206973417070726f766564466f7260408201527f416c6c205f6f776e6572207a65726f2061646472657373000000000000000000606082015260800190565b6020808252604c908201527f436f6d706f7361626c65546f70446f776e3a205f7472616e7366657246726f6d60408201527f20746f6b656e206973206368696c64206f66206f7468657220746f7020646f7760608201527f6e20636f6d706f7361626c650000000000000000000000000000000000000000608082015260a00190565b6020808252603a908201527f436f6d706f7361626c65546f70446f776e3a206973417070726f766564466f7260408201527f416c6c205f6f70657261746f72207a65726f2061646472657373000000000000606082015260800190565b60208082526029908201527f436f6d706f7361626c65546f70446f776e3a20737461746548617368206d697360408201527f6d61746368202832290000000000000000000000000000000000000000000000606082015260800190565b60208082526033908201527f436f6d706f7361626c65546f70446f776e3a206765744368696c64206d73672e60408201527f73656e646572206e6f7420617070726f76656400000000000000000000000000606082015260800190565b60208082526030908201527f436f6d706f7361626c65546f70446f776e3a20737461746548617368206f662060408201527f5f746f6b656e4964206973207a65726f00000000000000000000000000000000606082015260800190565b60208082526030908201527f436f6d706f7361626c65546f70446f776e3a205f7472616e7366657246726f6d60408201527f205f66726f6d206e6f74206f776e657200000000000000000000000000000000606082015260800190565b60208082526031908201527f436f6d706f7361626c65546f70446f776e3a207472616e73666572455243323260408201527f33207472616e73666572206661696c6564000000000000000000000000000000606082015260800190565b6020808252602c908201527f436f6d706f7361626c65546f70446f776e3a20676574455243323020616c6c6f60408201527f77616e6365206661696c65640000000000000000000000000000000000000000606082015260800190565b60008219821115614be757614be7614cbb565b500190565b6000816000190483118215151615614c0657614c06614cbb565b500290565b600082821015614c1d57614c1d614cbb565b500390565b60005b83811015614c3d578181015183820152602001614c25565b83811115610da55750506000910152565b600081614c5d57614c5d614cbb565b506000190190565b600281046001821680614c7957607f821691505b60208210811415614c9a57634e487b7160e01b600052602260045260246000fd5b50919050565b6000600019821415614cb457614cb4614cbb565b5060010190565b634e487b7160e01b600052601160045260246000fd5b634e487b7160e01b600052604160045260246000fd5b6001600160a01b0381168114614cfc57600080fd5b50565b8015158114614cfc57600080fd5b6001600160e01b031981168114614cfc57600080fdfea2646970667358221220047508bd25cc1d1bb3b29ea0a2c86fa068fc75d7be1e51d07fdc71826035d42b64736f6c63430008000033",
  "immutableReferences": {},
  "source": "// SPDX-License-Identifier: MIT\r\npragma solidity ^0.8.0;\r\n\r\n// import \"@openzeppelin/contracts/token/ERC721/extensions/ERC721URIStorage.sol\";\r\n// import \"@openzeppelin/contracts/utils/Counters.sol\";\r\nimport \"./ComposableTopDown.sol\";\r\n\r\ncontract Metaboom is ComposableTopDown {\r\n    constructor() ComposableTopDown(\"Metaboom\", \"MTB\") {}\r\n\r\n    function createNft(address player, string memory tokenURI)\r\n        public\r\n        returns (uint256)\r\n    {\r\n        uint256 tokenCount = _safeMint(player);\r\n        _setTokenURI(tokenCount, tokenURI);\r\n\r\n        return tokenCount;\r\n    }\r\n}\r\n",
  "sourcePath": "D:\\Users\\yesla\\Desktop\\solidityworkspace\\erc998\\contracts\\Metaboom.sol",
  "compiler": {
    "name": "solc",
    "version": "0.8.0+commit.c7dfd78e.Emscripten.clang"
  },
  "schemaVersion": "3.4.3",
  "updatedAt": "2021-10-13T15:43:14.118Z",
  "networkType": "ethereum",
  "devdoc": {
    "kind": "dev",
    "methods": {
      "checkedTransferFrom(address,address,uint256,uint256)": {
        "details": "See {transferFrom}. Check the state hash and call transferFrom."
      },
      "name()": {
        "details": "See {IERC721Metadata-name}."
      },
      "safeCheckedTransferFrom(address,address,uint256,uint256)": {
        "details": "See {safeTransferFrom}. Check the state hash and call safeTransferFrom."
      },
      "safeCheckedTransferFrom(address,address,uint256,uint256,bytes)": {
        "details": "See {safeTransferFrom}. Check the state hash and call safeTransferFrom."
      },
      "supportsInterface(bytes4)": {
        "details": "See {IERC165-supportsInterface}. The interface id 0x1bc995e4 is added. The spec claims it to be the interface id of IERC998ERC721TopDown. But it is not. It is added anyway in case some contract checks it being compliant with the spec."
      },
      "symbol()": {
        "details": "See {IERC721Metadata-symbol}."
      },
      "tokenURI(uint256)": {
        "details": "See {IERC721Metadata-tokenURI}."
      }
    },
    "version": 1
  },
  "userdoc": {
    "kind": "user",
    "methods": {},
    "version": 1
  }
}